{
  "_format": "hh-sol-artifact-1",
  "contractName": "AdamFactory",
  "sourceName": "contracts/AdamFactory.sol",
  "abi": [
    {
      "inputs": [
        {
          "internalType": "address",
          "name": "_feeToSetter",
          "type": "address"
        },
        {
          "internalType": "address",
          "name": "_teamAddress",
          "type": "address"
        },
        {
          "internalType": "uint256",
          "name": "_teamFeeRatio",
          "type": "uint256"
        },
        {
          "internalType": "uint256",
          "name": "_bonusPoolFeeRatio",
          "type": "uint256"
        }
      ],
      "stateMutability": "nonpayable",
      "type": "constructor"
    },
    {
      "anonymous": false,
      "inputs": [
        {
          "indexed": true,
          "internalType": "address",
          "name": "token0",
          "type": "address"
        },
        {
          "indexed": true,
          "internalType": "address",
          "name": "token1",
          "type": "address"
        },
        {
          "indexed": false,
          "internalType": "address",
          "name": "pair",
          "type": "address"
        },
        {
          "indexed": false,
          "internalType": "uint256",
          "name": "",
          "type": "uint256"
        }
      ],
      "name": "PairCreated",
      "type": "event"
    },
    {
      "inputs": [
        {
          "internalType": "uint256",
          "name": "",
          "type": "uint256"
        }
      ],
      "name": "allPairs",
      "outputs": [
        {
          "internalType": "address",
          "name": "",
          "type": "address"
        }
      ],
      "stateMutability": "view",
      "type": "function"
    },
    {
      "inputs": [],
      "name": "allPairsLength",
      "outputs": [
        {
          "internalType": "uint256",
          "name": "",
          "type": "uint256"
        }
      ],
      "stateMutability": "view",
      "type": "function"
    },
    {
      "inputs": [],
      "name": "bonusPoolAddress",
      "outputs": [
        {
          "internalType": "address",
          "name": "",
          "type": "address"
        }
      ],
      "stateMutability": "view",
      "type": "function"
    },
    {
      "inputs": [],
      "name": "bonusPoolFeeRatio",
      "outputs": [
        {
          "internalType": "uint256",
          "name": "",
          "type": "uint256"
        }
      ],
      "stateMutability": "view",
      "type": "function"
    },
    {
      "inputs": [
        {
          "internalType": "address",
          "name": "tokenA",
          "type": "address"
        },
        {
          "internalType": "address",
          "name": "tokenB",
          "type": "address"
        }
      ],
      "name": "createPair",
      "outputs": [
        {
          "internalType": "address",
          "name": "pair",
          "type": "address"
        }
      ],
      "stateMutability": "nonpayable",
      "type": "function"
    },
    {
      "inputs": [],
      "name": "feeSwitch",
      "outputs": [
        {
          "internalType": "bool",
          "name": "",
          "type": "bool"
        }
      ],
      "stateMutability": "view",
      "type": "function"
    },
    {
      "inputs": [],
      "name": "feeToSetter",
      "outputs": [
        {
          "internalType": "address",
          "name": "",
          "type": "address"
        }
      ],
      "stateMutability": "view",
      "type": "function"
    },
    {
      "inputs": [
        {
          "internalType": "address",
          "name": "",
          "type": "address"
        },
        {
          "internalType": "address",
          "name": "",
          "type": "address"
        }
      ],
      "name": "getPair",
      "outputs": [
        {
          "internalType": "address",
          "name": "",
          "type": "address"
        }
      ],
      "stateMutability": "view",
      "type": "function"
    },
    {
      "inputs": [
        {
          "internalType": "address",
          "name": "_bonusPoolAddress",
          "type": "address"
        }
      ],
      "name": "setBonusPoolAddress",
      "outputs": [],
      "stateMutability": "nonpayable",
      "type": "function"
    },
    {
      "inputs": [
        {
          "internalType": "uint256",
          "name": "_teamFeeRatio",
          "type": "uint256"
        },
        {
          "internalType": "uint256",
          "name": "_bonusPoolFeeRatio",
          "type": "uint256"
        }
      ],
      "name": "setFeeRatios",
      "outputs": [],
      "stateMutability": "nonpayable",
      "type": "function"
    },
    {
      "inputs": [
        {
          "internalType": "bool",
          "name": "_feeSwitch",
          "type": "bool"
        }
      ],
      "name": "setFeeSwitch",
      "outputs": [],
      "stateMutability": "nonpayable",
      "type": "function"
    },
    {
      "inputs": [
        {
          "internalType": "address",
          "name": "_feeToSetter",
          "type": "address"
        }
      ],
      "name": "setFeeToSetter",
      "outputs": [],
      "stateMutability": "nonpayable",
      "type": "function"
    },
    {
      "inputs": [
        {
          "internalType": "address",
          "name": "_teamAddress",
          "type": "address"
        }
      ],
      "name": "setTeamAddress",
      "outputs": [],
      "stateMutability": "nonpayable",
      "type": "function"
    },
    {
      "inputs": [],
      "name": "teamAddress",
      "outputs": [
        {
          "internalType": "address",
          "name": "",
          "type": "address"
        }
      ],
      "stateMutability": "view",
      "type": "function"
    },
    {
      "inputs": [],
      "name": "teamFeeRatio",
      "outputs": [
        {
          "internalType": "uint256",
          "name": "",
          "type": "uint256"
        }
      ],
      "stateMutability": "view",
      "type": "function"
    }
  ],
  "bytecode": "0x608060405234801561001057600080fd5b50604051612ef4380380612ef483398101604081905261002f916100f3565b6100398183610136565b60281461008c5760405162461bcd60e51b815260206004820152601b60248201527f546f74616c2066656520726174696f206d757374206265203430250000000000604482015260640160405180910390fd5b600080546001600160a01b039586166001600160a01b03199182161790915560018054949095169316929092179092556002805460ff60a01b1916905560039190915560045561015d565b80516001600160a01b03811681146100ee57600080fd5b919050565b6000806000806080858703121561010957600080fd5b610112856100d7565b9350610120602086016100d7565b6040860151606090960151949790965092505050565b8082018082111561015757634e487b7160e01b600052601160045260246000fd5b92915050565b612d888061016c6000396000f3fe608060405234801561001057600080fd5b50600436106100f55760003560e01c80636604a6a311610097578063bbc5037311610066578063bbc50373146101ea578063c9c65396146101fd578063e6a4390514610210578063f593a8761461024457600080fd5b80636604a6a31461018d5780636690864e146101a057806388916b5b146101b3578063a2e74af6146101d757600080fd5b80631e3dd18b116100d35780631e3dd18b14610154578063317d5c71146101675780634fa2cf8a14610170578063574f2ba31461018557600080fd5b8063094b7415146100fa578063107f46ec1461012a5780631c75f08514610141575b600080fd5b60005461010d906001600160a01b031681565b6040516001600160a01b0390911681526020015b60405180910390f35b61013360035481565b604051908152602001610121565b60015461010d906001600160a01b031681565b61010d61016236600461073f565b610257565b61013360045481565b61018361017e366004610758565b610281565b005b600654610133565b60025461010d906001600160a01b031681565b6101836101ae366004610796565b610318565b6002546101c790600160a01b900460ff1681565b6040519015158152602001610121565b6101836101e5366004610796565b610364565b6101836101f83660046107b8565b6103b0565b61010d61020b3660046107da565b6103f8565b61010d61021e3660046107da565b60056020908152600092835260408084209091529082529020546001600160a01b031681565b610183610252366004610796565b6106e6565b6006818154811061026757600080fd5b6000918252602090912001546001600160a01b0316905081565b6000546001600160a01b031633146102b45760405162461bcd60e51b81526004016102ab9061080d565b60405180910390fd5b6102be8183610836565b60281461030d5760405162461bcd60e51b815260206004820152601b60248201527f546f74616c2066656520726174696f206d75737420626520343025000000000060448201526064016102ab565b600391909155600455565b6000546001600160a01b031633146103425760405162461bcd60e51b81526004016102ab9061080d565b600180546001600160a01b0319166001600160a01b0392909216919091179055565b6000546001600160a01b0316331461038e5760405162461bcd60e51b81526004016102ab9061080d565b600080546001600160a01b0319166001600160a01b0392909216919091179055565b6000546001600160a01b031633146103da5760405162461bcd60e51b81526004016102ab9061080d565b60028054911515600160a01b0260ff60a01b19909216919091179055565b6000816001600160a01b0316836001600160a01b03160361045b5760405162461bcd60e51b815260206004820152601960248201527f4164616d3a204944454e544943414c5f4144445245535345530000000000000060448201526064016102ab565b600080836001600160a01b0316856001600160a01b03161061047e578385610481565b84845b90925090506001600160a01b0382166104d15760405162461bcd60e51b81526020600482015260126024820152714164616d3a205a45524f5f4144445245535360701b60448201526064016102ab565b6001600160a01b0382811660009081526005602090815260408083208585168452909152902054161561053a5760405162461bcd60e51b81526020600482015260116024820152704164616d3a20504149525f45584953545360781b60448201526064016102ab565b60006040518060200161054c90610732565b601f1982820381018352601f9091011660408190526bffffffffffffffffffffffff19606086811b8216602084015285901b166034820152909150600090604801604051602081830303815290604052805190602001209050808251602084016000f560405163485cc95560e01b81526001600160a01b03868116600483015285811660248301529196509086169063485cc95590604401600060405180830381600087803b1580156105fe57600080fd5b505af1158015610612573d6000803e3d6000fd5b505050506001600160a01b0384811660008181526005602081815260408084208987168086529083528185208054978d166001600160a01b031998891681179091559383528185208686528352818520805488168517905560068054600181018255958190527ff652222313e28459528d920b65115c16c04f3efc82aaedc97be59f3f377c0d3f9095018054909716841790965592548351928352908201527f0d3648bd0f6ba80134a33ba9275ac585d9d315f0ad8355cddefde31afa28d0e9910160405180910390a35050505092915050565b6000546001600160a01b031633146107105760405162461bcd60e51b81526004016102ab9061080d565b600280546001600160a01b0319166001600160a01b0392909216919091179055565b6124f58061085e83390190565b60006020828403121561075157600080fd5b5035919050565b6000806040838503121561076b57600080fd5b50508035926020909101359150565b80356001600160a01b038116811461079157600080fd5b919050565b6000602082840312156107a857600080fd5b6107b18261077a565b9392505050565b6000602082840312156107ca57600080fd5b813580151581146107b157600080fd5b600080604083850312156107ed57600080fd5b6107f68361077a565b91506108046020840161077a565b90509250929050565b6020808252600f908201526e20b230b69d102327a92124a22222a760891b604082015260600190565b8082018082111561085757634e487b7160e01b600052601160045260246000fd5b9291505056fe60806040526001600c5534801561001557600080fd5b50604080518082018252600881526704164616d737761760c41b6020918201528151808301835260018152603160f81b9082015281517f8b73c3c69bb8fe3d512ecc4cf759cc79239f7b179b0ffacaa9a75d522b39400f818301527f4ed81d1a4a886562fe21efc726294e252882cab2959fe3a44183eeeab9ead431818401527fc89efdaa54c0f20c7adf612882df0950f5a951637e0307cdcb4c672f298b8bc660608201524660808201523060a0808301919091528351808303909101815260c09091019092528151910120600355600580546001600160a01b031916331790556123ef806101066000396000f3fe608060405234801561001057600080fd5b50600436106101a95760003560e01c80636a627842116100f9578063ba9a7a5611610097578063d21220a711610071578063d21220a714610407578063d505accf1461041a578063dd62ed3e1461042d578063fff6cae91461045857600080fd5b8063ba9a7a56146103d8578063bc25cf77146103e1578063c45a0155146103f457600080fd5b80637ecebe00116100d35780637ecebe001461035757806389afcb441461037757806395d89b411461039f578063a9059cbb146103c557600080fd5b80636a6278421461031b57806370a082311461032e5780637464fc3d1461034e57600080fd5b806323b872dd116101665780633644e515116101405780633644e515146102ed578063485cc955146102f65780635909c0d5146103095780635a3d54931461031257600080fd5b806323b872dd1461029957806330adf81f146102ac578063313ce567146102d357600080fd5b8063022c0d9f146101ae57806306fdde03146101c35780630902f1ac14610200578063095ea7b3146102345780630dfe16811461025757806318160ddd14610282575b600080fd5b6101c16101bc366004611f86565b610460565b005b6101ea6040518060400160405280600881526020016704164616d737761760c41b81525081565b6040516101f79190612040565b60405180910390f35b61020861094c565b604080516001600160701b03948516815293909216602084015263ffffffff16908201526060016101f7565b610247610242366004612073565b610976565b60405190151581526020016101f7565b60065461026a906001600160a01b031681565b6040516001600160a01b0390911681526020016101f7565b61028b60005481565b6040519081526020016101f7565b6102476102a736600461209f565b61098d565b61028b7f6e71edae12b1b97f4d1f60370fef10105fa2faae0126114a169c64845d6126c981565b6102db601281565b60405160ff90911681526020016101f7565b61028b60035481565b6101c16103043660046120e0565b610a22565b61028b60095481565b61028b600a5481565b61028b610329366004612119565b610a9c565b61028b61033c366004612119565b60016020526000908152604090205481565b61028b600b5481565b61028b610365366004612119565b60046020526000908152604090205481565b61038a610385366004612119565b610d50565b604080519283526020830191909152016101f7565b6101ea6040518060400160405280600781526020016620b230b696ab1960c91b81525081565b6102476103d3366004612073565b61109c565b61028b6103e881565b6101c16103ef366004612119565b6110a9565b60055461026a906001600160a01b031681565b60075461026a906001600160a01b031681565b6101c1610428366004612136565b6111bc565b61028b61043b3660046120e0565b600260209081526000928352604080842090915290825290205481565b6101c16113cb565b600c5460011461048b5760405162461bcd60e51b8152600401610482906121ad565b60405180910390fd5b6000600c558415158061049e5750600084115b6104ea5760405162461bcd60e51b815260206004820181905260248201527f4164616d3a20494e53554646494349454e545f4f55545055545f414d4f554e546044820152606401610482565b6000806104f561094c565b5091509150816001600160701b03168710801561051a5750806001600160701b031686105b6105665760405162461bcd60e51b815260206004820152601c60248201527f4164616d3a20494e53554646494349454e545f4c4951554944495459000000006044820152606401610482565b60065460075460009182916001600160a01b039182169190811690891682148015906105a45750806001600160a01b0316896001600160a01b031614155b6105e35760405162461bcd60e51b815260206004820152601060248201526f4164616d3a20494e56414c49445f544f60801b6044820152606401610482565b8a156105f4576105f4828a8d6114ef565b891561060557610605818a8c6114ef565b8615610672576040516304347a1760e21b81526001600160a01b038a16906310d1e85c9061063f9033908f908f908e908e906004016121d3565b600060405180830381600087803b15801561065957600080fd5b505af115801561066d573d6000803e3d6000fd5b505050505b6040516370a0823160e01b81523060048201526001600160a01b038316906370a0823190602401602060405180830381865afa1580156106b6573d6000803e3d6000fd5b505050506040513d601f19601f820116820180604052508101906106da919061221f565b6040516370a0823160e01b81523060048201529094506001600160a01b038216906370a0823190602401602060405180830381865afa158015610721573d6000803e3d6000fd5b505050506040513d601f19601f82011682018060405250810190610745919061221f565b92505050600089856001600160701b0316610760919061224e565b831161076d57600061078a565b6107808a6001600160701b03871661224e565b61078a908461224e565b905060006107a18a6001600160701b03871661224e565b83116107ae5760006107cb565b6107c18a6001600160701b03871661224e565b6107cb908461224e565b905060008211806107dc5750600081115b6108285760405162461bcd60e51b815260206004820152601f60248201527f4164616d3a20494e53554646494349454e545f494e5055545f414d4f554e54006044820152606401610482565b6000610835836003612261565b610841866103e8612261565b61084b919061224e565b9050600061085a836003612261565b610866866103e8612261565b610870919061224e565b90506108886001600160701b03808916908a16612261565b61089590620f4240612261565b61089f8284612261565b10156108d75760405162461bcd60e51b81526020600482015260076024820152664164616d3a204b60c81b6044820152606401610482565b50506108e584848888611632565b60408051838152602081018390529081018c9052606081018b90526001600160a01b038a169033907fd78ad95fa46c994b6551d0da85fc275fe613ce37657fb8d5e3d130840159d8229060800160405180910390a350506001600c55505050505050505050565b6008546001600160701b0380821692600160701b830490911691600160e01b900463ffffffff1690565b6000610983338484611819565b5060015b92915050565b6001600160a01b038316600090815260026020908152604080832033845290915281205460001914610a0d576001600160a01b03841660009081526002602090815260408083203384529091529020546109e890839061224e565b6001600160a01b03851660009081526002602090815260408083203384529091529020555b610a1884848461187b565b5060019392505050565b6005546001600160a01b03163314610a6e5760405162461bcd60e51b815260206004820152600f60248201526e20b230b69d102327a92124a22222a760891b6044820152606401610482565b600680546001600160a01b039384166001600160a01b03199182161790915560078054929093169116179055565b6000600c54600114610ac05760405162461bcd60e51b8152600401610482906121ad565b6000600c81905580610ad061094c565b506006546040516370a0823160e01b81523060048201529294509092506000916001600160a01b03909116906370a0823190602401602060405180830381865afa158015610b22573d6000803e3d6000fd5b505050506040513d601f19601f82011682018060405250810190610b46919061221f565b6007546040516370a0823160e01b81523060048201529192506000916001600160a01b03909116906370a0823190602401602060405180830381865afa158015610b94573d6000803e3d6000fd5b505050506040513d601f19601f82011682018060405250810190610bb8919061221f565b90506000610bcf6001600160701b0386168461224e565b90506000610be66001600160701b0386168461224e565b9050610bf28686611923565b6000805490819003610c31576103e8610c13610c0e8486612261565b611c8a565b610c1d919061224e565b9750610c2c60006103e8611e0b565b610c78565b610c756001600160701b038816610c488386612261565b610c52919061228e565b6001600160701b038816610c668486612261565b610c70919061228e565b611e9c565b97505b60008811610cd45760405162461bcd60e51b815260206004820152602360248201527f4164616d3a20494e53554646494349454e545f4c49515549444954595f4d494e60448201526215115160ea1b6064820152608401610482565b610cde8989611e0b565b610cea85858989611632565b610d006001600160701b03808816908916612261565b600b55604080518481526020810184905233917f4c209b5fc8ad50758f13e2e1088ba56a560dff690a1c6fef26394f4c03821c4f910160405180910390a250506001600c55509395945050505050565b600080600c54600114610d755760405162461bcd60e51b8152600401610482906121ad565b6000600c81905580610d8561094c565b506006546007546040516370a0823160e01b81523060048201529395509193506001600160a01b039081169291169060009083906370a0823190602401602060405180830381865afa158015610ddf573d6000803e3d6000fd5b505050506040513d601f19601f82011682018060405250810190610e03919061221f565b6040516370a0823160e01b81523060048201529091506000906001600160a01b038416906370a0823190602401602060405180830381865afa158015610e4d573d6000803e3d6000fd5b505050506040513d601f19601f82011682018060405250810190610e71919061221f565b30600090815260016020526040902054909150610e8e8787611923565b60005480610e9c8584612261565b610ea6919061228e565b995080610eb38484612261565b610ebd919061228e565b985060008a118015610ecf5750600089115b610f275760405162461bcd60e51b815260206004820152602360248201527f4164616d3a20494e53554646494349454e545f4c49515549444954595f42555260448201526213915160ea1b6064820152608401610482565b610f313083611eb4565b610f3c868c8c6114ef565b610f47858c8b6114ef565b6040516370a0823160e01b81523060048201526001600160a01b038716906370a0823190602401602060405180830381865afa158015610f8b573d6000803e3d6000fd5b505050506040513d601f19601f82011682018060405250810190610faf919061221f565b6040516370a0823160e01b81523060048201529094506001600160a01b038616906370a0823190602401602060405180830381865afa158015610ff6573d6000803e3d6000fd5b505050506040513d601f19601f8201168201806040525081019061101a919061221f565b925061102884848a8a611632565b61103e6001600160701b03808916908a16612261565b600b55604080518b8152602081018b90526001600160a01b038d169133917fdccd412f0b1252819cb1fd330b93224ca42612892bb3f4f789976e6d81936496910160405180910390a350505050505050506001600c81905550915091565b600061098333848461187b565b600c546001146110cb5760405162461bcd60e51b8152600401610482906121ad565b6000600c556006546007546008546040516370a0823160e01b81523060048201526001600160a01b03938416939092169161116a91849186916001600160701b03169083906370a08231906024015b602060405180830381865afa158015611137573d6000803e3d6000fd5b505050506040513d601f19601f8201168201806040525081019061115b919061221f565b611165919061224e565b6114ef565b6008546040516370a0823160e01b81523060048201526111b29183918691600160701b90046001600160701b0316906001600160a01b038416906370a082319060240161111a565b50506001600c5550565b428410156111fc5760405162461bcd60e51b815260206004820152600d60248201526c1059185b4e8811561412549151609a1b6044820152606401610482565b6003546001600160a01b038816600090815260046020526040812080549192917f6e71edae12b1b97f4d1f60370fef10105fa2faae0126114a169c64845d6126c9918b918b918b91908761124f836122a2565b909155506040805160208101969096526001600160a01b0394851690860152929091166060840152608083015260a082015260c0810187905260e001604051602081830303815290604052805190602001206040516020016112c892919061190160f01b81526002810192909252602282015260420190565b60408051601f198184030181528282528051602091820120600080855291840180845281905260ff88169284019290925260608301869052608083018590529092509060019060a0016020604051602081039080840390855afa158015611333573d6000803e3d6000fd5b5050604051601f1901519150506001600160a01b038116158015906113695750886001600160a01b0316816001600160a01b0316145b6113b55760405162461bcd60e51b815260206004820152601760248201527f4164616d3a20494e56414c49445f5349474e41545552450000000000000000006044820152606401610482565b6113c0898989611819565b505050505050505050565b600c546001146113ed5760405162461bcd60e51b8152600401610482906121ad565b6000600c556006546040516370a0823160e01b81523060048201526114e8916001600160a01b0316906370a0823190602401602060405180830381865afa15801561143c573d6000803e3d6000fd5b505050506040513d601f19601f82011682018060405250810190611460919061221f565b6007546040516370a0823160e01b81523060048201526001600160a01b03909116906370a0823190602401602060405180830381865afa1580156114a8573d6000803e3d6000fd5b505050506040513d601f19601f820116820180604052508101906114cc919061221f565b6008546001600160701b0380821691600160701b900416611632565b6001600c55565b604080518082018252601981527f7472616e7366657228616464726573732c75696e74323536290000000000000060209182015281516001600160a01b0385811660248301526044808301869052845180840390910181526064909201845291810180516001600160e01b031663a9059cbb60e01b1790529151600092839287169161157b91906122bb565b6000604051808303816000865af19150503d80600081146115b8576040519150601f19603f3d011682016040523d82523d6000602084013e6115bd565b606091505b50915091508180156115e75750805115806115e75750808060200190518101906115e791906122d7565b61162b5760405162461bcd60e51b81526020600482015260156024820152741059185b4e881514905394d1915497d19052531151605a1b6044820152606401610482565b5050505050565b6001600160701b03841180159061165057506001600160701b038311155b61168d5760405162461bcd60e51b815260206004820152600e60248201526d4164616d3a204f564552464c4f5760901b6044820152606401610482565b600061169e640100000000426122f9565b6008549091506000906116be90600160e01b900463ffffffff168361230d565b905060008163ffffffff161180156116de57506001600160701b03841615155b80156116f257506001600160701b03831615155b15611781578063ffffffff1661171a8561170b86611f40565b6001600160e01b031690611f59565b6001600160e01b031661172d9190612261565b6009600082825461173e9190612331565b909155505063ffffffff81166117578461170b87611f40565b6001600160e01b031661176a9190612261565b600a600082825461177b9190612331565b90915550505b6008805463ffffffff8416600160e01b026001600160e01b036001600160701b03898116600160701b9081026001600160e01b03199095168c83161794909417918216831794859055604080519382169282169290921783529290930490911660208201527f1c411e9a96e071241c2f21f7726b17ae89e3cab4c78be50e062b03a9fffbbad1910160405180910390a1505050505050565b6001600160a01b0383811660008181526002602090815260408083209487168084529482529182902085905590518481527f8c5be1e5ebec7d5bd14f71427d1e84f3dd0314c0f7b2291e5b200ac8c7c3b92591015b60405180910390a3505050565b6001600160a01b03831660009081526001602052604090205461189f90829061224e565b6001600160a01b0380851660009081526001602052604080822093909355908416815220546118cf908290612331565b6001600160a01b0380841660008181526001602052604090819020939093559151908516907fddf252ad1be2c89b69c2b068fc378daa952ba7f163c4a11628f55a4df523b3ef9061186e9085815260200190565b60055460408051631c75f08560e01b815290516000926001600160a01b031691631c75f0859160048083019260209291908290030181865afa15801561196d573d6000803e3d6000fd5b505050506040513d601f19601f820116820180604052508101906119919190612344565b90506000600560009054906101000a90046001600160a01b03166001600160a01b0316636604a6a36040518163ffffffff1660e01b8152600401602060405180830381865afa1580156119e8573d6000803e3d6000fd5b505050506040513d601f19601f82011682018060405250810190611a0c9190612344565b90506000600560009054906101000a90046001600160a01b03166001600160a01b03166388916b5b6040518163ffffffff1660e01b8152600401602060405180830381865afa158015611a63573d6000803e3d6000fd5b505050506040513d601f19601f82011682018060405250810190611a8791906122d7565b90506000600560009054906101000a90046001600160a01b03166001600160a01b031663107f46ec6040518163ffffffff1660e01b8152600401602060405180830381865afa158015611ade573d6000803e3d6000fd5b505050506040513d601f19601f82011682018060405250810190611b02919061221f565b90506000600560009054906101000a90046001600160a01b03166001600160a01b031663317d5c716040518163ffffffff1660e01b8152600401602060405180830381865afa158015611b59573d6000803e3d6000fd5b505050506040513d601f19601f82011682018060405250810190611b7d919061221f565b90506000611b9a610c0e6001600160701b03808a16908b16612261565b90506000611ba9600b54611c8a565b9050808211156113c0576000611bbf828461224e565b600054611bcc9190612261565b611bd7906002612261565b90506000611be6836002612261565b611bf1856003612261565b611bfb9190612331565b90506000611c09828461228e565b90508715611c6c5760006028611c1f8884612261565b611c29919061228e565b905060006028611c398a85612261565b611c43919061228e565b90508115611c5557611c558b83611e0b565b8015611c6557611c658c82611e0b565b5050611c7c565b8015611c7c57611c7c8a82611e0b565b505050505050505050505050565b600081600003611c9c57506000919050565b816001600160801b8210611cb55760809190911c9060401b5b680100000000000000008210611cd05760409190911c9060201b5b6401000000008210611ce75760209190911c9060101b5b620100008210611cfc5760109190911c9060081b5b6101008210611d105760089190911c9060041b5b60108210611d235760049190911c9060021b5b60088210611d2f5760011b5b6001611d3b828661228e565b611d459083612331565b901c90506001611d55828661228e565b611d5f9083612331565b901c90506001611d6f828661228e565b611d799083612331565b901c90506001611d89828661228e565b611d939083612331565b901c90506001611da3828661228e565b611dad9083612331565b901c90506001611dbd828661228e565b611dc79083612331565b901c90506001611dd7828661228e565b611de19083612331565b901c90506000611df1828661228e565b9050808210611e005780611e02565b815b95945050505050565b80600054611e199190612331565b60009081556001600160a01b038316815260016020526040902054611e3f908290612331565b6001600160a01b0383166000818152600160205260408082209390935591519091907fddf252ad1be2c89b69c2b068fc378daa952ba7f163c4a11628f55a4df523b3ef90611e909085815260200190565b60405180910390a35050565b6000818310611eab5781611ead565b825b9392505050565b6001600160a01b038216600090815260016020526040902054611ed890829061224e565b6001600160a01b03831660009081526001602052604081209190915554611f0090829061224e565b60009081556040518281526001600160a01b038416907fddf252ad1be2c89b69c2b068fc378daa952ba7f163c4a11628f55a4df523b3ef90602001611e90565b6000610987600160701b6001600160701b038416612361565b6000611ead6001600160701b03831684612393565b6001600160a01b0381168114611f8357600080fd5b50565b600080600080600060808688031215611f9e57600080fd5b85359450602086013593506040860135611fb781611f6e565b9250606086013567ffffffffffffffff80821115611fd457600080fd5b818801915088601f830112611fe857600080fd5b813581811115611ff757600080fd5b89602082850101111561200957600080fd5b9699959850939650602001949392505050565b60005b8381101561203757818101518382015260200161201f565b50506000910152565b602081526000825180602084015261205f81604085016020870161201c565b601f01601f19169190910160400192915050565b6000806040838503121561208657600080fd5b823561209181611f6e565b946020939093013593505050565b6000806000606084860312156120b457600080fd5b83356120bf81611f6e565b925060208401356120cf81611f6e565b929592945050506040919091013590565b600080604083850312156120f357600080fd5b82356120fe81611f6e565b9150602083013561210e81611f6e565b809150509250929050565b60006020828403121561212b57600080fd5b8135611ead81611f6e565b600080600080600080600060e0888a03121561215157600080fd5b873561215c81611f6e565b9650602088013561216c81611f6e565b95506040880135945060608801359350608088013560ff8116811461219057600080fd5b9699959850939692959460a0840135945060c09093013592915050565b6020808252600c908201526b1059185b4e881313d0d2d15160a21b604082015260600190565b60018060a01b038616815284602082015283604082015260806060820152816080820152818360a0830137600081830160a090810191909152601f909201601f19160101949350505050565b60006020828403121561223157600080fd5b5051919050565b634e487b7160e01b600052601160045260246000fd5b8181038181111561098757610987612238565b808202811582820484141761098757610987612238565b634e487b7160e01b600052601260045260246000fd5b60008261229d5761229d612278565b500490565b6000600182016122b4576122b4612238565b5060010190565b600082516122cd81846020870161201c565b9190910192915050565b6000602082840312156122e957600080fd5b81518015158114611ead57600080fd5b60008261230857612308612278565b500690565b63ffffffff82811682821603908082111561232a5761232a612238565b5092915050565b8082018082111561098757610987612238565b60006020828403121561235657600080fd5b8151611ead81611f6e565b6001600160e01b0382811682821681810283169291811582850482141761238a5761238a612238565b50505092915050565b60006001600160e01b03838116806123ad576123ad612278565b9216919091049291505056fea2646970667358221220668b20871187b72a7899115a80c558fd447e412b9aef623ee103ff32689b942364736f6c63430008120033a264697066735822122064d1e2cd3ee9f1b221c3333c91fa9351440ca5214cfed9b87de6034c6317f92964736f6c63430008120033",
  "linkReferences": {},
  "deployedLinkReferences": {}
}